{
  "contractName": "CryptoArtifacts",
  "abi": [
    {
      "constant": true,
      "inputs": [
        {
          "name": "_interfaceId",
          "type": "bytes4"
        }
      ],
      "name": "supportsInterface",
      "outputs": [
        {
          "name": "",
          "type": "bool"
        }
      ],
      "payable": false,
      "stateMutability": "view",
      "type": "function"
    },
    {
      "constant": true,
      "inputs": [],
      "name": "name",
      "outputs": [
        {
          "name": "",
          "type": "string"
        }
      ],
      "payable": false,
      "stateMutability": "view",
      "type": "function"
    },
    {
      "constant": true,
      "inputs": [
        {
          "name": "_tokenId",
          "type": "uint256"
        }
      ],
      "name": "getApproved",
      "outputs": [
        {
          "name": "",
          "type": "address"
        }
      ],
      "payable": false,
      "stateMutability": "view",
      "type": "function"
    },
    {
      "constant": false,
      "inputs": [
        {
          "name": "_to",
          "type": "address"
        },
        {
          "name": "_tokenId",
          "type": "uint256"
        }
      ],
      "name": "approve",
      "outputs": [],
      "payable": false,
      "stateMutability": "nonpayable",
      "type": "function"
    },
    {
      "constant": true,
      "inputs": [],
      "name": "totalSupply",
      "outputs": [
        {
          "name": "",
          "type": "uint256"
        }
      ],
      "payable": false,
      "stateMutability": "view",
      "type": "function"
    },
    {
      "constant": true,
      "inputs": [],
      "name": "InterfaceId_ERC165",
      "outputs": [
        {
          "name": "",
          "type": "bytes4"
        }
      ],
      "payable": false,
      "stateMutability": "view",
      "type": "function"
    },
    {
      "constant": false,
      "inputs": [
        {
          "name": "_from",
          "type": "address"
        },
        {
          "name": "_to",
          "type": "address"
        },
        {
          "name": "_tokenId",
          "type": "uint256"
        }
      ],
      "name": "transferFrom",
      "outputs": [],
      "payable": false,
      "stateMutability": "nonpayable",
      "type": "function"
    },
    {
      "constant": true,
      "inputs": [
        {
          "name": "_owner",
          "type": "address"
        },
        {
          "name": "_index",
          "type": "uint256"
        }
      ],
      "name": "tokenOfOwnerByIndex",
      "outputs": [
        {
          "name": "",
          "type": "uint256"
        }
      ],
      "payable": false,
      "stateMutability": "view",
      "type": "function"
    },
    {
      "constant": true,
      "inputs": [],
      "name": "packPrice",
      "outputs": [
        {
          "name": "",
          "type": "uint256"
        }
      ],
      "payable": false,
      "stateMutability": "view",
      "type": "function"
    },
    {
      "constant": true,
      "inputs": [
        {
          "name": "",
          "type": "uint256"
        }
      ],
      "name": "listOfPlayers",
      "outputs": [
        {
          "name": "",
          "type": "address"
        }
      ],
      "payable": false,
      "stateMutability": "view",
      "type": "function"
    },
    {
      "constant": false,
      "inputs": [
        {
          "name": "_from",
          "type": "address"
        },
        {
          "name": "_to",
          "type": "address"
        },
        {
          "name": "_tokenId",
          "type": "uint256"
        }
      ],
      "name": "safeTransferFrom",
      "outputs": [],
      "payable": false,
      "stateMutability": "nonpayable",
      "type": "function"
    },
    {
      "constant": true,
      "inputs": [],
      "name": "initialLootboxes",
      "outputs": [
        {
          "name": "",
          "type": "uint256"
        }
      ],
      "payable": false,
      "stateMutability": "view",
      "type": "function"
    },
    {
      "constant": true,
      "inputs": [
        {
          "name": "",
          "type": "address"
        }
      ],
      "name": "existingPlayers",
      "outputs": [
        {
          "name": "",
          "type": "bool"
        }
      ],
      "payable": false,
      "stateMutability": "view",
      "type": "function"
    },
    {
      "constant": true,
      "inputs": [
        {
          "name": "_tokenId",
          "type": "uint256"
        }
      ],
      "name": "exists",
      "outputs": [
        {
          "name": "",
          "type": "bool"
        }
      ],
      "payable": false,
      "stateMutability": "view",
      "type": "function"
    },
    {
      "constant": true,
      "inputs": [
        {
          "name": "_index",
          "type": "uint256"
        }
      ],
      "name": "tokenByIndex",
      "outputs": [
        {
          "name": "",
          "type": "uint256"
        }
      ],
      "payable": false,
      "stateMutability": "view",
      "type": "function"
    },
    {
      "constant": true,
      "inputs": [],
      "name": "lootboxesLeft",
      "outputs": [
        {
          "name": "",
          "type": "uint256"
        }
      ],
      "payable": false,
      "stateMutability": "view",
      "type": "function"
    },
    {
      "constant": true,
      "inputs": [
        {
          "name": "",
          "type": "uint256"
        }
      ],
      "name": "artifacts",
      "outputs": [
        {
          "name": "set",
          "type": "uint256"
        },
        {
          "name": "slot",
          "type": "uint256"
        },
        {
          "name": "power",
          "type": "uint256"
        },
        {
          "name": "bonus",
          "type": "uint256"
        }
      ],
      "payable": false,
      "stateMutability": "view",
      "type": "function"
    },
    {
      "constant": true,
      "inputs": [
        {
          "name": "_tokenId",
          "type": "uint256"
        }
      ],
      "name": "ownerOf",
      "outputs": [
        {
          "name": "",
          "type": "address"
        }
      ],
      "payable": false,
      "stateMutability": "view",
      "type": "function"
    },
    {
      "constant": true,
      "inputs": [
        {
          "name": "_owner",
          "type": "address"
        }
      ],
      "name": "balanceOf",
      "outputs": [
        {
          "name": "",
          "type": "uint256"
        }
      ],
      "payable": false,
      "stateMutability": "view",
      "type": "function"
    },
    {
      "constant": false,
      "inputs": [],
      "name": "renounceOwnership",
      "outputs": [],
      "payable": false,
      "stateMutability": "nonpayable",
      "type": "function"
    },
    {
      "constant": true,
      "inputs": [],
      "name": "numberOfSlots",
      "outputs": [
        {
          "name": "",
          "type": "uint256"
        }
      ],
      "payable": false,
      "stateMutability": "view",
      "type": "function"
    },
    {
      "constant": true,
      "inputs": [],
      "name": "owner",
      "outputs": [
        {
          "name": "",
          "type": "address"
        }
      ],
      "payable": false,
      "stateMutability": "view",
      "type": "function"
    },
    {
      "constant": true,
      "inputs": [],
      "name": "symbol",
      "outputs": [
        {
          "name": "",
          "type": "string"
        }
      ],
      "payable": false,
      "stateMutability": "view",
      "type": "function"
    },
    {
      "constant": false,
      "inputs": [
        {
          "name": "_to",
          "type": "address"
        },
        {
          "name": "_approved",
          "type": "bool"
        }
      ],
      "name": "setApprovalForAll",
      "outputs": [],
      "payable": false,
      "stateMutability": "nonpayable",
      "type": "function"
    },
    {
      "constant": false,
      "inputs": [
        {
          "name": "_from",
          "type": "address"
        },
        {
          "name": "_to",
          "type": "address"
        },
        {
          "name": "_tokenId",
          "type": "uint256"
        },
        {
          "name": "_data",
          "type": "bytes"
        }
      ],
      "name": "safeTransferFrom",
      "outputs": [],
      "payable": false,
      "stateMutability": "nonpayable",
      "type": "function"
    },
    {
      "constant": true,
      "inputs": [],
      "name": "set",
      "outputs": [
        {
          "name": "",
          "type": "uint256"
        }
      ],
      "payable": false,
      "stateMutability": "view",
      "type": "function"
    },
    {
      "constant": true,
      "inputs": [
        {
          "name": "_tokenId",
          "type": "uint256"
        }
      ],
      "name": "tokenURI",
      "outputs": [
        {
          "name": "",
          "type": "string"
        }
      ],
      "payable": false,
      "stateMutability": "view",
      "type": "function"
    },
    {
      "constant": true,
      "inputs": [
        {
          "name": "_owner",
          "type": "address"
        },
        {
          "name": "_operator",
          "type": "address"
        }
      ],
      "name": "isApprovedForAll",
      "outputs": [
        {
          "name": "",
          "type": "bool"
        }
      ],
      "payable": false,
      "stateMutability": "view",
      "type": "function"
    },
    {
      "constant": false,
      "inputs": [
        {
          "name": "_newOwner",
          "type": "address"
        }
      ],
      "name": "transferOwnership",
      "outputs": [],
      "payable": false,
      "stateMutability": "nonpayable",
      "type": "function"
    },
    {
      "constant": true,
      "inputs": [
        {
          "name": "",
          "type": "address"
        },
        {
          "name": "",
          "type": "uint256"
        }
      ],
      "name": "equipped",
      "outputs": [
        {
          "name": "",
          "type": "uint256"
        }
      ],
      "payable": false,
      "stateMutability": "view",
      "type": "function"
    },
    {
      "anonymous": false,
      "inputs": [],
      "name": "LootboxesOpened",
      "type": "event"
    },
    {
      "anonymous": false,
      "inputs": [],
      "name": "ArtifactEquipped",
      "type": "event"
    },
    {
      "anonymous": false,
      "inputs": [],
      "name": "NewPlayer",
      "type": "event"
    },
    {
      "anonymous": false,
      "inputs": [],
      "name": "GameUpdated",
      "type": "event"
    },
    {
      "anonymous": false,
      "inputs": [
        {
          "indexed": true,
          "name": "previousOwner",
          "type": "address"
        }
      ],
      "name": "OwnershipRenounced",
      "type": "event"
    },
    {
      "anonymous": false,
      "inputs": [
        {
          "indexed": true,
          "name": "previousOwner",
          "type": "address"
        },
        {
          "indexed": true,
          "name": "newOwner",
          "type": "address"
        }
      ],
      "name": "OwnershipTransferred",
      "type": "event"
    },
    {
      "anonymous": false,
      "inputs": [
        {
          "indexed": true,
          "name": "_from",
          "type": "address"
        },
        {
          "indexed": true,
          "name": "_to",
          "type": "address"
        },
        {
          "indexed": true,
          "name": "_tokenId",
          "type": "uint256"
        }
      ],
      "name": "Transfer",
      "type": "event"
    },
    {
      "anonymous": false,
      "inputs": [
        {
          "indexed": true,
          "name": "_owner",
          "type": "address"
        },
        {
          "indexed": true,
          "name": "_approved",
          "type": "address"
        },
        {
          "indexed": true,
          "name": "_tokenId",
          "type": "uint256"
        }
      ],
      "name": "Approval",
      "type": "event"
    },
    {
      "anonymous": false,
      "inputs": [
        {
          "indexed": true,
          "name": "_owner",
          "type": "address"
        },
        {
          "indexed": true,
          "name": "_operator",
          "type": "address"
        },
        {
          "indexed": false,
          "name": "_approved",
          "type": "bool"
        }
      ],
      "name": "ApprovalForAll",
      "type": "event"
    },
    {
      "constant": true,
      "inputs": [
        {
          "name": "upper",
          "type": "uint256"
        }
      ],
      "name": "random",
      "outputs": [
        {
          "name": "",
          "type": "uint256"
        }
      ],
      "payable": false,
      "stateMutability": "view",
      "type": "function"
    },
    {
      "constant": false,
      "inputs": [
        {
          "name": "_artifactId",
          "type": "uint256"
        }
      ],
      "name": "equip",
      "outputs": [],
      "payable": false,
      "stateMutability": "nonpayable",
      "type": "function"
    },
    {
      "constant": false,
      "inputs": [
        {
          "name": "_set",
          "type": "uint256"
        },
        {
          "name": "_numberOfSlots",
          "type": "uint256"
        },
        {
          "name": "_lootboxesLeft",
          "type": "uint256"
        }
      ],
      "name": "updateGame",
      "outputs": [],
      "payable": false,
      "stateMutability": "nonpayable",
      "type": "function"
    },
    {
      "constant": true,
      "inputs": [],
      "name": "getCurrentPrice",
      "outputs": [
        {
          "name": "",
          "type": "uint256"
        }
      ],
      "payable": false,
      "stateMutability": "view",
      "type": "function"
    },
    {
      "constant": false,
      "inputs": [
        {
          "name": "_number",
          "type": "uint256"
        }
      ],
      "name": "openLootboxes",
      "outputs": [],
      "payable": true,
      "stateMutability": "payable",
      "type": "function"
    }
  ],
  "bytecode": "0x60806040526000600d556009600e55612710600f5560006010556127106011556040805190810160405280600f81526020017f43727970746f41727469666163747300000000000000000000000000000000008152506040805190810160405280600281526020017f4341000000000000000000000000000000000000000000000000000000000000815250620000c86301ffc9a77c01000000000000000000000000000000000000000000000000000000000262000237640100000000026401000000009004565b620001056380ac58cd7c01000000000000000000000000000000000000000000000000000000000262000237640100000000026401000000009004565b62000142634f558e797c01000000000000000000000000000000000000000000000000000000000262000237640100000000026401000000009004565b81600590805190602001906200015a929190620002f5565b50806006908051906020019062000173929190620002f5565b50620001b163780e9d637c01000000000000000000000000000000000000000000000000000000000262000237640100000000026401000000009004565b620001ee635b5e139f7c01000000000000000000000000000000000000000000000000000000000262000237640100000000026401000000009004565b505033600c60006101000a81548173ffffffffffffffffffffffffffffffffffffffff021916908373ffffffffffffffffffffffffffffffffffffffff160217905550620003a4565b63ffffffff7c010000000000000000000000000000000000000000000000000000000002817bffffffffffffffffffffffffffffffffffffffffffffffffffffffff1916141515156200028957600080fd5b6001600080837bffffffffffffffffffffffffffffffffffffffffffffffffffffffff19167bffffffffffffffffffffffffffffffffffffffffffffffffffffffff1916815260200190815260200160002060006101000a81548160ff02191690831515021790555050565b828054600181600116156101000203166002900490600052602060002090601f016020900481019282601f106200033857805160ff191683800117855562000369565b8280016001018555821562000369579182015b82811115620003685782518255916020019190600101906200034b565b5b5090506200037891906200037c565b5090565b620003a191905b808211156200039d57600081600090555060010162000383565b5090565b90565b612c1f80620003b46000396000f3006080604052600436106101b7576000357c0100000000000000000000000000000000000000000000000000000000900463ffffffff16806301ffc9a7146101bc57806306fdde0314610220578063081812fc146102b0578063095ea7b31461031d5780630ede44521461036a57806318160ddd146103ab57806319fa8f50146103d657806323b872dd1461043f5780632f745c59146104ac578063335c8b631461050d5780633f0612591461053857806342842e0e146105a557806348319ade14610612578063496f4c061461063d5780634f558e79146106985780634f6ccce7146106dd57806352c9d49f1461071e57806357f219b7146107495780636352211e1461079f5780636fed994c1461080c57806370a082311461082c578063715018a61461088357806378c3f93e1461089a5780638da5cb5b146108c557806395d89b411461091c578063a22cb465146109ac578063b85f8027146109fb578063b863bd3714610a28578063b88d4fde14610a69578063b8e010de14610b1c578063c87b56dd14610b47578063e985e9c514610bed578063eb91d37e14610c68578063f2fde38b14610c93578063f9b275f914610cd6575b600080fd5b3480156101c857600080fd5b5061020660048036038101908080357bffffffffffffffffffffffffffffffffffffffffffffffffffffffff19169060200190929190505050610d37565b604051808215151515815260200191505060405180910390f35b34801561022c57600080fd5b50610235610d9e565b6040518080602001828103825283818151815260200191508051906020019080838360005b8381101561027557808201518184015260208101905061025a565b50505050905090810190601f1680156102a25780820380516001836020036101000a031916815260200191505b509250505060405180910390f35b3480156102bc57600080fd5b506102db60048036038101908080359060200190929190505050610e40565b604051808273ffffffffffffffffffffffffffffffffffffffff1673ffffffffffffffffffffffffffffffffffffffff16815260200191505060405180910390f35b34801561032957600080fd5b50610368600480360381019080803573ffffffffffffffffffffffffffffffffffffffff16906020019092919080359060200190929190505050610e7d565b005b34801561037657600080fd5b506103a9600480360381019080803590602001909291908035906020019092919080359060200190929190505050610fc2565b005b3480156103b757600080fd5b506103c061104f565b6040518082815260200191505060405180910390f35b3480156103e257600080fd5b506103eb61105c565b60405180827bffffffffffffffffffffffffffffffffffffffffffffffffffffffff19167bffffffffffffffffffffffffffffffffffffffffffffffffffffffff1916815260200191505060405180910390f35b34801561044b57600080fd5b506104aa600480360381019080803573ffffffffffffffffffffffffffffffffffffffff169060200190929190803573ffffffffffffffffffffffffffffffffffffffff16906020019092919080359060200190929190505050611083565b005b3480156104b857600080fd5b506104f7600480360381019080803573ffffffffffffffffffffffffffffffffffffffff16906020019092919080359060200190929190505050611190565b6040518082815260200191505060405180910390f35b34801561051957600080fd5b50610522611207565b6040518082815260200191505060405180910390f35b34801561054457600080fd5b506105636004803603810190808035906020019092919050505061120d565b604051808273ffffffffffffffffffffffffffffffffffffffff1673ffffffffffffffffffffffffffffffffffffffff16815260200191505060405180910390f35b3480156105b157600080fd5b50610610600480360381019080803573ffffffffffffffffffffffffffffffffffffffff169060200190929190803573ffffffffffffffffffffffffffffffffffffffff1690602001909291908035906020019092919050505061124b565b005b34801561061e57600080fd5b50610627611283565b6040518082815260200191505060405180910390f35b34801561064957600080fd5b5061067e600480360381019080803573ffffffffffffffffffffffffffffffffffffffff169060200190929190505050611289565b604051808215151515815260200191505060405180910390f35b3480156106a457600080fd5b506106c3600480360381019080803590602001909291905050506112a9565b604051808215151515815260200191505060405180910390f35b3480156106e957600080fd5b506107086004803603810190808035906020019092919050505061131b565b6040518082815260200191505060405180910390f35b34801561072a57600080fd5b50610733611353565b6040518082815260200191505060405180910390f35b34801561075557600080fd5b5061077460048036038101908080359060200190929190505050611359565b6040518085815260200184815260200183815260200182815260200194505050505060405180910390f35b3480156107ab57600080fd5b506107ca60048036038101908080359060200190929190505050611389565b604051808273ffffffffffffffffffffffffffffffffffffffff1673ffffffffffffffffffffffffffffffffffffffff16815260200191505060405180910390f35b61082a60048036038101908080359060200190929190505050611407565b005b34801561083857600080fd5b5061086d600480360381019080803573ffffffffffffffffffffffffffffffffffffffff169060200190929190505050611480565b6040518082815260200191505060405180910390f35b34801561088f57600080fd5b50610898611504565b005b3480156108a657600080fd5b506108af611609565b6040518082815260200191505060405180910390f35b3480156108d157600080fd5b506108da61160f565b604051808273ffffffffffffffffffffffffffffffffffffffff1673ffffffffffffffffffffffffffffffffffffffff16815260200191505060405180910390f35b34801561092857600080fd5b50610931611635565b6040518080602001828103825283818151815260200191508051906020019080838360005b83811015610971578082015181840152602081019050610956565b50505050905090810190601f16801561099e5780820380516001836020036101000a031916815260200191505b509250505060405180910390f35b3480156109b857600080fd5b506109f9600480360381019080803573ffffffffffffffffffffffffffffffffffffffff1690602001909291908035151590602001909291905050506116d7565b005b348015610a0757600080fd5b50610a2660048036038101908080359060200190929190505050611813565b005b348015610a3457600080fd5b50610a53600480360381019080803590602001909291905050506118cf565b6040518082815260200191505060405180910390f35b348015610a7557600080fd5b50610b1a600480360381019080803573ffffffffffffffffffffffffffffffffffffffff169060200190929190803573ffffffffffffffffffffffffffffffffffffffff16906020019092919080359060200190929190803590602001908201803590602001908080601f01602080910402602001604051908101604052809392919081815260200183838082843782019150505050505091929192905050506118fc565b005b348015610b2857600080fd5b50610b3161193b565b6040518082815260200191505060405180910390f35b348015610b5357600080fd5b50610b7260048036038101908080359060200190929190505050611941565b6040518080602001828103825283818151815260200191508051906020019080838360005b83811015610bb2578082015181840152602081019050610b97565b50505050905090810190601f168015610bdf5780820380516001836020036101000a031916815260200191505b509250505060405180910390f35b348015610bf957600080fd5b50610c4e600480360381019080803573ffffffffffffffffffffffffffffffffffffffff169060200190929190803573ffffffffffffffffffffffffffffffffffffffff169060200190929190505050611a0a565b604051808215151515815260200191505060405180910390f35b348015610c7457600080fd5b50610c7d611a9e565b6040518082815260200191505060405180910390f35b348015610c9f57600080fd5b50610cd4600480360381019080803573ffffffffffffffffffffffffffffffffffffffff169060200190929190505050611b01565b005b348015610ce257600080fd5b50610d21600480360381019080803573ffffffffffffffffffffffffffffffffffffffff16906020019092919080359060200190929190505050611b69565b6040518082815260200191505060405180910390f35b6000806000837bffffffffffffffffffffffffffffffffffffffffffffffffffffffff19167bffffffffffffffffffffffffffffffffffffffffffffffffffffffff1916815260200190815260200160002060009054906101000a900460ff169050919050565b606060058054600181600116156101000203166002900480601f016020809104026020016040519081016040528092919081815260200182805460018160011615610100020316600290048015610e365780601f10610e0b57610100808354040283529160200191610e36565b820191906000526020600020905b815481529060010190602001808311610e1957829003601f168201915b5050505050905090565b60006002600083815260200190815260200160002060009054906101000a900473ffffffffffffffffffffffffffffffffffffffff169050919050565b6000610e8882611389565b90508073ffffffffffffffffffffffffffffffffffffffff168373ffffffffffffffffffffffffffffffffffffffff1614151515610ec557600080fd5b8073ffffffffffffffffffffffffffffffffffffffff163373ffffffffffffffffffffffffffffffffffffffff161480610f055750610f048133611a0a565b5b1515610f1057600080fd5b826002600084815260200190815260200160002060006101000a81548173ffffffffffffffffffffffffffffffffffffffff021916908373ffffffffffffffffffffffffffffffffffffffff160217905550818373ffffffffffffffffffffffffffffffffffffffff168273ffffffffffffffffffffffffffffffffffffffff167f8c5be1e5ebec7d5bd14f71427d1e84f3dd0314c0f7b2291e5b200ac8c7c3b92560405160405180910390a4505050565b600c60009054906101000a900473ffffffffffffffffffffffffffffffffffffffff1673ffffffffffffffffffffffffffffffffffffffff163373ffffffffffffffffffffffffffffffffffffffff1614151561101e57600080fd5b600d548311151561102e57600080fd5b82600d8190555081600e8190555080600f8190555080601181905550505050565b6000600980549050905090565b6301ffc9a77c01000000000000000000000000000000000000000000000000000000000281565b8061108e3382611b99565b151561109957600080fd5b600073ffffffffffffffffffffffffffffffffffffffff168473ffffffffffffffffffffffffffffffffffffffff16141515156110d557600080fd5b600073ffffffffffffffffffffffffffffffffffffffff168373ffffffffffffffffffffffffffffffffffffffff161415151561111157600080fd5b61111b8483611c2e565b6111258483611d31565b61112f8383611f49565b818373ffffffffffffffffffffffffffffffffffffffff168573ffffffffffffffffffffffffffffffffffffffff167fddf252ad1be2c89b69c2b068fc378daa952ba7f163c4a11628f55a4df523b3ef60405160405180910390a450505050565b600061119b83611480565b821015156111a857600080fd5b600760008473ffffffffffffffffffffffffffffffffffffffff1673ffffffffffffffffffffffffffffffffffffffff168152602001908152602001600020828154811015156111f457fe5b9060005260206000200154905092915050565b60105481565b60158181548110151561121c57fe5b906000526020600020016000915054906101000a900473ffffffffffffffffffffffffffffffffffffffff1681565b806112563382611b99565b151561126157600080fd5b61127d84848460206040519081016040528060008152506118fc565b50505050565b60115481565b60146020528060005260406000206000915054906101000a900460ff1681565b6000806001600084815260200190815260200160002060009054906101000a900473ffffffffffffffffffffffffffffffffffffffff169050600073ffffffffffffffffffffffffffffffffffffffff168173ffffffffffffffffffffffffffffffffffffffff161415915050919050565b600061132561104f565b8210151561133257600080fd5b60098281548110151561134157fe5b90600052602060002001549050919050565b600f5481565b60126020528060005260406000206000915090508060000154908060010154908060020154908060030154905084565b6000806001600084815260200190815260200160002060009054906101000a900473ffffffffffffffffffffffffffffffffffffffff169050600073ffffffffffffffffffffffffffffffffffffffff168173ffffffffffffffffffffffffffffffffffffffff16141515156113fe57600080fd5b80915050919050565b600081600f541015151561141a57600080fd5b6001821015151561142a57600080fd5b611444611435611a9e565b8361202090919063ffffffff16565b341015151561145257600080fd5b600090505b8181101561147457611467612058565b8080600101915050611457565b61147c6121d3565b5050565b60008073ffffffffffffffffffffffffffffffffffffffff168273ffffffffffffffffffffffffffffffffffffffff16141515156114bd57600080fd5b600360008373ffffffffffffffffffffffffffffffffffffffff1673ffffffffffffffffffffffffffffffffffffffff168152602001908152602001600020549050919050565b600c60009054906101000a900473ffffffffffffffffffffffffffffffffffffffff1673ffffffffffffffffffffffffffffffffffffffff163373ffffffffffffffffffffffffffffffffffffffff1614151561156057600080fd5b600c60009054906101000a900473ffffffffffffffffffffffffffffffffffffffff1673ffffffffffffffffffffffffffffffffffffffff167ff8df31144d9c2f0f6b59d69b8b98abd5459d07f2742c4df920b25aae33c6482060405160405180910390a26000600c60006101000a81548173ffffffffffffffffffffffffffffffffffffffff021916908373ffffffffffffffffffffffffffffffffffffffff160217905550565b600e5481565b600c60009054906101000a900473ffffffffffffffffffffffffffffffffffffffff1681565b606060068054600181600116156101000203166002900480601f0160208091040260200160405190810160405280929190818152602001828054600181600116156101000203166002900480156116cd5780601f106116a2576101008083540402835291602001916116cd565b820191906000526020600020905b8154815290600101906020018083116116b057829003601f168201915b5050505050905090565b3373ffffffffffffffffffffffffffffffffffffffff168273ffffffffffffffffffffffffffffffffffffffff161415151561171257600080fd5b80600460003373ffffffffffffffffffffffffffffffffffffffff1673ffffffffffffffffffffffffffffffffffffffff16815260200190815260200160002060008473ffffffffffffffffffffffffffffffffffffffff1673ffffffffffffffffffffffffffffffffffffffff16815260200190815260200160002060006101000a81548160ff0219169083151502179055508173ffffffffffffffffffffffffffffffffffffffff163373ffffffffffffffffffffffffffffffffffffffff167f17307eab39ab6107e8899845ad3d59bd9653f200f220920489ca2b5937696c3183604051808215151515815260200191505060405180910390a35050565b60003373ffffffffffffffffffffffffffffffffffffffff1661183583611389565b73ffffffffffffffffffffffffffffffffffffffff1614151561185757600080fd5b6012600083815260200190815260200160002060010154905081601360003373ffffffffffffffffffffffffffffffffffffffff1673ffffffffffffffffffffffffffffffffffffffff168152602001908152602001600020828154811015156118bd57fe5b90600052602060002001819055505050565b600060018242601580549050600f546001430302020240600190048115156118f357fe5b06019050919050565b816119073382611b99565b151561191257600080fd5b61191d858585611083565b611929858585856122ea565b151561193457600080fd5b5050505050565b600d5481565b606061194c826112a9565b151561195757600080fd5b600b60008381526020019081526020016000208054600181600116156101000203166002900480601f0160208091040260200160405190810160405280929190818152602001828054600181600116156101000203166002900480156119fe5780601f106119d3576101008083540402835291602001916119fe565b820191906000526020600020905b8154815290600101906020018083116119e157829003601f168201915b50505050509050919050565b6000600460008473ffffffffffffffffffffffffffffffffffffffff1673ffffffffffffffffffffffffffffffffffffffff16815260200190815260200160002060008373ffffffffffffffffffffffffffffffffffffffff1673ffffffffffffffffffffffffffffffffffffffff16815260200190815260200160002060009054906101000a900460ff16905092915050565b600080611ab8600f5460115461250c90919063ffffffff16565b9050611afb620f4240611aed66071afd498d0000611adf858661202090919063ffffffff16565b61202090919063ffffffff16565b61252590919063ffffffff16565b91505090565b600c60009054906101000a900473ffffffffffffffffffffffffffffffffffffffff1673ffffffffffffffffffffffffffffffffffffffff163373ffffffffffffffffffffffffffffffffffffffff16141515611b5d57600080fd5b611b668161253b565b50565b601360205281600052604060002081815481101515611b8457fe5b90600052602060002001600091509150505481565b600080611ba583611389565b90508073ffffffffffffffffffffffffffffffffffffffff168473ffffffffffffffffffffffffffffffffffffffff161480611c1457508373ffffffffffffffffffffffffffffffffffffffff16611bfc84610e40565b73ffffffffffffffffffffffffffffffffffffffff16145b80611c255750611c248185611a0a565b5b91505092915050565b8173ffffffffffffffffffffffffffffffffffffffff16611c4e82611389565b73ffffffffffffffffffffffffffffffffffffffff16141515611c7057600080fd5b600073ffffffffffffffffffffffffffffffffffffffff166002600083815260200190815260200160002060009054906101000a900473ffffffffffffffffffffffffffffffffffffffff1673ffffffffffffffffffffffffffffffffffffffff16141515611d2d5760006002600083815260200190815260200160002060006101000a81548173ffffffffffffffffffffffffffffffffffffffff021916908373ffffffffffffffffffffffffffffffffffffffff1602179055505b5050565b6000806000611d408585612637565b60086000858152602001908152602001600020549250611dac6001600760008873ffffffffffffffffffffffffffffffffffffffff1673ffffffffffffffffffffffffffffffffffffffff1681526020019081526020016000208054905061250c90919063ffffffff16565b9150600760008673ffffffffffffffffffffffffffffffffffffffff1673ffffffffffffffffffffffffffffffffffffffff16815260200190815260200160002082815481101515611dfa57fe5b9060005260206000200154905080600760008773ffffffffffffffffffffffffffffffffffffffff1673ffffffffffffffffffffffffffffffffffffffff16815260200190815260200160002084815481101515611e5457fe5b90600052602060002001819055506000600760008773ffffffffffffffffffffffffffffffffffffffff1673ffffffffffffffffffffffffffffffffffffffff16815260200190815260200160002083815481101515611eb057fe5b9060005260206000200181905550600760008673ffffffffffffffffffffffffffffffffffffffff1673ffffffffffffffffffffffffffffffffffffffff168152602001908152602001600020805480919060019003611f109190612af9565b50600060086000868152602001908152602001600020819055508260086000838152602001908152602001600020819055505050505050565b6000611f558383612766565b600760008473ffffffffffffffffffffffffffffffffffffffff1673ffffffffffffffffffffffffffffffffffffffff168152602001908152602001600020805490509050600760008473ffffffffffffffffffffffffffffffffffffffff1673ffffffffffffffffffffffffffffffffffffffff168152602001908152602001600020829080600181540180825580915050906001820390600052602060002001600090919290919091505550806008600084815260200190815260200160002081905550505050565b6000808314156120335760009050612052565b818302905081838281151561204457fe5b0414151561204e57fe5b8090505b92915050565b60006120706001600f5461250c90919063ffffffff16565b600f8190555061207e6128c0565b61209760016009805490506128d090919063ffffffff16565b90506120a333826128ec565b6120ab612943565b60126000838152602001908152602001600020600082015181600001556020820151816001015560408201518160020155606082015181600301559050506121d081601260008481526020019081526020016000206000015460126000858152602001908152602001600020600101546012600086815260200190815260200160002060020154601260008781526020019081526020016000206003015460405160200180807f68747470733a2f2f63727970746f6172746966616374732e636f2f617274696681526020017f616374696d616765732f00000000000000000000000000000000000000000000815250602a018581526020018481526020018381526020018281526020019450505050506040516020818303038152906040526129a0565b50565b60001515601460003373ffffffffffffffffffffffffffffffffffffffff1673ffffffffffffffffffffffffffffffffffffffff16815260200190815260200160002060009054906101000a900460ff16151514151561223257600080fd5b60153390806001815401808255809150509060018203906000526020600020016000909192909190916101000a81548173ffffffffffffffffffffffffffffffffffffffff021916908373ffffffffffffffffffffffffffffffffffffffff1602179055505060011515601460003373ffffffffffffffffffffffffffffffffffffffff1673ffffffffffffffffffffffffffffffffffffffff16815260200190815260200160002060009054906101000a90505050565b60008061230c8573ffffffffffffffffffffffffffffffffffffffff166129e0565b151561231b5760019150612503565b8473ffffffffffffffffffffffffffffffffffffffff1663150b7a02338887876040518563ffffffff167c0100000000000000000000000000000000000000000000000000000000028152600401808573ffffffffffffffffffffffffffffffffffffffff1673ffffffffffffffffffffffffffffffffffffffff1681526020018473ffffffffffffffffffffffffffffffffffffffff1673ffffffffffffffffffffffffffffffffffffffff16815260200183815260200180602001828103825283818151815260200191508051906020019080838360005b838110156124105780820151818401526020810190506123f5565b50505050905090810190601f16801561243d5780820380516001836020036101000a031916815260200191505b5095505050505050602060405180830381600087803b15801561245f57600080fd5b505af1158015612473573d6000803e3d6000fd5b505050506040513d602081101561248957600080fd5b8101908080519060200190929190505050905063150b7a027c0100000000000000000000000000000000000000000000000000000000027bffffffffffffffffffffffffffffffffffffffffffffffffffffffff1916817bffffffffffffffffffffffffffffffffffffffffffffffffffffffff19161491505b50949350505050565b600082821115151561251a57fe5b818303905092915050565b6000818381151561253257fe5b04905092915050565b600073ffffffffffffffffffffffffffffffffffffffff168173ffffffffffffffffffffffffffffffffffffffff161415151561257757600080fd5b8073ffffffffffffffffffffffffffffffffffffffff16600c60009054906101000a900473ffffffffffffffffffffffffffffffffffffffff1673ffffffffffffffffffffffffffffffffffffffff167f8be0079c531659141344cd1fd0a4f28419497f9722a3daafe3b4186f6b6457e060405160405180910390a380600c60006101000a81548173ffffffffffffffffffffffffffffffffffffffff021916908373ffffffffffffffffffffffffffffffffffffffff16021790555050565b8173ffffffffffffffffffffffffffffffffffffffff1661265782611389565b73ffffffffffffffffffffffffffffffffffffffff1614151561267957600080fd5b6126cc6001600360008573ffffffffffffffffffffffffffffffffffffffff1673ffffffffffffffffffffffffffffffffffffffff1681526020019081526020016000205461250c90919063ffffffff16565b600360008473ffffffffffffffffffffffffffffffffffffffff1673ffffffffffffffffffffffffffffffffffffffff1681526020019081526020016000208190555060006001600083815260200190815260200160002060006101000a81548173ffffffffffffffffffffffffffffffffffffffff021916908373ffffffffffffffffffffffffffffffffffffffff1602179055505050565b600073ffffffffffffffffffffffffffffffffffffffff166001600083815260200190815260200160002060009054906101000a900473ffffffffffffffffffffffffffffffffffffffff1673ffffffffffffffffffffffffffffffffffffffff161415156127d457600080fd5b816001600083815260200190815260200160002060006101000a81548173ffffffffffffffffffffffffffffffffffffffff021916908373ffffffffffffffffffffffffffffffffffffffff1602179055506128796001600360008573ffffffffffffffffffffffffffffffffffffffff1673ffffffffffffffffffffffffffffffffffffffff168152602001908152602001600020546128d090919063ffffffff16565b600360008473ffffffffffffffffffffffffffffffffffffffff1673ffffffffffffffffffffffffffffffffffffffff168152602001908152602001600020819055505050565b6128c8611a9e565b601081905550565b600081830190508281101515156128e357fe5b80905092915050565b6128f682826129f3565b600980549050600a60008381526020019081526020016000208190555060098190806001815401808255809150509060018203906000526020600020016000909192909190915055505050565b61294b612b25565b600080600061295b600e546118cf565b92506001612967612a99565b019150612972612a99565b9050608060405190810160405280600d54815260200184815260200183815260200182815250935050505090565b6129a9826112a9565b15156129b457600080fd5b80600b600084815260200190815260200160002090805190602001906129db929190612b4e565b505050565b600080823b905060008111915050919050565b600073ffffffffffffffffffffffffffffffffffffffff168273ffffffffffffffffffffffffffffffffffffffff1614151515612a2f57600080fd5b612a398282611f49565b808273ffffffffffffffffffffffffffffffffffffffff16600073ffffffffffffffffffffffffffffffffffffffff167fddf252ad1be2c89b69c2b068fc378daa952ba7f163c4a11628f55a4df523b3ef60405160405180910390a45050565b600080612aa4612ae8565b9050600181111515612ab95760039150612ae4565b600581111515612acc5760029150612ae4565b601981111515612adf5760019150612ae4565b600091505b5090565b6000612af460646118cf565b905090565b815481835581811115612b2057818360005260206000209182019101612b1f9190612bce565b5b505050565b608060405190810160405280600081526020016000815260200160008152602001600081525090565b828054600181600116156101000203166002900490600052602060002090601f016020900481019282601f10612b8f57805160ff1916838001178555612bbd565b82800160010185558215612bbd579182015b82811115612bbc578251825591602001919060010190612ba1565b5b509050612bca9190612bce565b5090565b612bf091905b80821115612bec576000816000905550600101612bd4565b5090565b905600a165627a7a7230582066d78b4d749a02a53d3f0e6c127d3eee9d92120954268fe04a6794f321e141ef0029",
  "source": "pragma solidity ^0.4.24;\n\nimport \"../node_modules/openzeppelin-solidity/contracts/token/ERC721/ERC721Token.sol\";\nimport \"../node_modules/openzeppelin-solidity/contracts/ownership/Ownable.sol\";\n\ncontract CryptoArtifacts is ERC721Token(\"CryptoArtifacts\", \"CA\"), Ownable {\n\n    uint public set = 0;\n    uint public numberOfSlots = 9;\n    uint public lootboxesLeft = 10000;\n    uint public packPrice = 0;\n    uint public initialLootboxes = 10000;\n\n    struct Artifact {\n        uint set;\n        uint slot;\n        uint power; // aka type\n        uint bonus; // aka variant\n    }\n\n    mapping (uint => Artifact) public artifacts;\n\n    mapping (address => uint[]) public equipped;\n    \n    mapping (address => bool) public existingPlayers;\n    address[] public listOfPlayers;\n    \n    event LootboxesOpened();\n    event ArtifactEquipped();\n    event NewPlayer();\n    event GameUpdated();\n    \n    function random(uint upper) public view returns (uint) {\n        return uint(blockhash((block.number - 1) * lootboxesLeft * listOfPlayers.length * block.timestamp)) % upper + 1;\n    }\n    \n    function k100() private view returns (uint) {\n        return random(100);\n    }\n    \n    // returns 0,1,2,3\n    // 1%, 4%, 25%, 70%\n    function distributed4() private view returns (uint) {\n        uint k100roll = k100();\n        if(k100roll <= 1){\n            return 3;\n        } else if (k100roll <= 5) {\n            return 2;\n        } else if (k100roll <= 25) {\n            return 1;\n        } else {\n            return 0;\n        }\n    }\n    \n    function updateListOfPlayers() private {\n        require(existingPlayers[msg.sender] == false);\n        listOfPlayers.push(msg.sender);\n        existingPlayers[msg.sender] == true;\n    }\n\n    function equip(uint _artifactId) public {\n        require(ownerOf(_artifactId) == msg.sender);\n        uint _slot = artifacts[_artifactId].slot;\n        equipped[msg.sender][_slot] = _artifactId;\n    }\n\n    function updateGame(uint _set, uint _numberOfSlots, uint _lootboxesLeft) onlyOwner public {\n        require(_set > set);\n        set = _set;\n        numberOfSlots = _numberOfSlots;\n        lootboxesLeft = _lootboxesLeft;\n        initialLootboxes = _lootboxesLeft;\n    }\n    \n    function getCurrentPrice() public view returns (uint) {\n        uint lootboxesSold = initialLootboxes.sub(lootboxesLeft);\n        return lootboxesSold.mul(lootboxesSold).mul(2000000000000000).div(1000000);\n    }\n    \n    function updatePrice() private {\n        packPrice = getCurrentPrice();\n    }\n\n    function openLootboxes(uint _number) public payable {\n        require(lootboxesLeft >= _number);\n        require(_number >= 1);\n        // no matter how many player buys, we always get the last price\n        require(msg.value >= _number.mul(getCurrentPrice()));\n        \n        for (uint i = 0; i < _number; i++) {\n            openOneLootbox();\n        }\n        \n        updateListOfPlayers();\n    }\n    \n    function openOneLootbox() private {\n        lootboxesLeft = lootboxesLeft.sub(1);\n        updatePrice();\n        uint _id = allTokens.length.add(1);\n        _mint(msg.sender, _id);\n        artifacts[_id] = generateArtifact();\n        _setTokenURI(\n            _id,\n            string(\n                abi.encodePacked(\n                \"https://cryptoartifacts.co/artifactimages/\",\n                artifacts[_id].set,\n                artifacts[_id].slot,\n                artifacts[_id].power,\n                artifacts[_id].bonus\n            ))\n        );\n    }\n    \n    function generateArtifact() private view returns (Artifact) {\n        uint _slot = random(numberOfSlots);\n        uint _power = distributed4() + 1; // 1,2,3,4\n        uint _bonus = distributed4(); // 0,1,2,3\n        return Artifact(set, _slot, _power, _bonus);\n    }\n\n}\n",
  "sourcePath": "/home/maciej/Dokumenty/CryptoArtifacts.github.io/truffle/contracts/CryptoArtifacts.sol",
  "compiler": {
    "name": "solc",
    "version": "0.4.24+commit.e67f0147.Emscripten.clang"
  },
  "schemaVersion": "2.0.1",
  "updatedAt": "2018-08-05T11:08:22.354Z"
}